:020000040800F2
:10000000000002207D2A0008DD080008DF08000843
:10001000E1080008E3080008E50800080000000007
:10002000000000000000000000000000E7080008D9
:10003000E908000800000000EB080008ED080008CF
:10004000D12A0008D12A0008D12A0008D12A0008A4
:10005000D12A0008D12A0008D12A0008D12A000894
:10006000D12A0008D12A0008D12A0008D12A000884
:10007000D12A0008D12A0008D12A0008D12A000874
:10008000D12A0008D12A0008D12A0008D12A000864
:10009000D12A0008D12A0008D12A0008D12A000854
:1000A000D12A0008D12A0008D12A0008D12A000844
:1000B000D12A0008D12A0008D12A0008D12A000834
:1000C000D12A0008D12A0008D12A0008D12A000824
:1000D000D12A0008D12A0008D12A0008D12A000814
:1000E000F5080008D12A000800000000D12A000805
:1000F000D12A0008D12A0008D12A0008D12A0008F4
:10010000D12A0008D12A0008D12A0008D12A0008E3
:10011000D12A0008D12A0008D12A0008D12A0008D3
:10012000D12A0008D12A0008D12A0008D12A0008C3
:10013000D12A0008D12A0008D12A0008D12A0008B3
:1001400000000000000000000000000000000000AF
:10015000D12A0008D12A0008D12A0008D12A000893
:10016000D12A0008D12A0008D12A0008D12A000883
:10017000D12A0008D12A0008D12A00080000000076
:10018000D12A0008D12A0008D12A0008D12A000863
:10019000D12A0008D12A0008D12A0008D12A000853
:1001A000D12A0008D12A0008D12A00080000000046
:1001B000D12A0008D12A0008D12A0008D12A000833
:1001C000D12A0008D12A0008000000000000000029
:1001D0000000000000000000D12A0008000000001C
:1001E000000000000000000000000000000000000F
:1001F0000000000000000000D12A0008D12A0008F9
:10020000D12A0008D12A000800000000D12A0008E5
:10021000D12A0008D12A0008D12A0008D12A0008D2
:10022000D12A000800000000D12A000800000000C8
:10023000D12A0008D12A000800000000D12A0008B5
:10024000D12A0008D12A0008D12A0008D12A0008A2
:10025000D12A0008D12A0008D12A0008D12A000892
:10026000D12A0008D12A0008D12A0008D12A000882
:10027000D12A0008D12A0008D12A00080000000075
:10028000D12A0008D12A0008D12A0008D12A000862
:1002900000000000D12A0008D12A00080000000058
:1002A00000000000D12A0008D12A0008D12A000845
:1002B000D12A0008D12A0008D12A0008D12A000832
:0C02C000D12A0008D12A0008D12A000829
:1002CC000348044B834202D0034B03B118477047D9
:1002DC001400002014000020000000000548064B0C
:1002EC001B1AD90F01EBA301491002D0034B03B128
:1002FC001847704714000020140000200000000074
:10030C0010B5064C237843B9FFF7DAFF044B13B151
:10031C000448AFF300800123237010BD14000020AB
:10032C0000000000D42A000808B5044B1BB1044996
:10033C000448AFF30080BDE80840CFE700000000A0
:10034C0018000020D42A000870B50F4B0F4DAB429B
:10035C00A3EB050607D0B610002455F8043B013476
:10036C009847A642F9D802F0AFFB094D094B5E1B2A
:10037C00AB424FEAA60606D0002455F8043B0134E4
:10038C009847A642F9D870BD302B0008302B0008D6
:10039C00302B0008342B0008830730B547D0541E8F
:1003AC00002A3ED0CAB2034601E0013C39D303F81F
:1003BC00012B9D07F9D1032C2CD9CDB205EB0525CA
:1003CC000F2C05EB054535D9A4F1100222F00F0CCA
:1003DC0003F1100EE6444FEA121C1A46C2E900550E
:1003EC00C2E9025510327245F8D10CF1010214F039
:1003FC000C0F03EB021204F00F0C13D0ACF104033E
:10040C0023F003030433134442F8045B9342FBD1FF
:10041C000CF003042CB1C9B21C4403F8011BA34219
:10042C00FBD130BD64461346002CF4D1F9E70346EA
:10043C001446C0E71A46A446E0E700BF53B94AB9D0
:10044C00002908BF00281CBF4FF0FF314FF0FF30D0
:10045C0000F06AB9ADF1080C6DE904CE00F006F8B5
:10046C00DDF804E0DDE9022304B070472DE9F04724
:10047C00089D0E4604460F46002B4AD194468C45E7
:10048C00B2FA82F260D942B1C2F12003974020FA4D
:10049C0003F30CFA02FC1F4394404FEA1C4E1FFA64
:1004AC008CF6B7FBFEF1230C0EFB117743EA0743E6
:1004BC0001FB06F098420AD91CEB030301F1FF374C
:1004CC0080F01581984240F21281023963441B1A64
:1004DC00A4B2B3FBFEF00EFB103344EA034400FB62
:1004EC0006F6A6420AD91CEB040400F1FF3380F097
:1004FC000081A64240F2FD806444023840EA01408B
:10050C00A41B00211DB1D4400023C5E90043BDE864
:10051C00F0878B4205D90DB1C5E9000100210846D1
:10052C00F5E7B3FA83F1002946D1B34202D38242F4
:10053C0000F2F580841A66EB030201201746002DA9
:10054C00E5D0C5E90047E2E7002A40F09380A1EB33
:10055C000C034FEA1C471FFA8CFE0121B3FBF7F684
:10056C0007FB1630230C43EA00430EFB06F09842BF
:10057C0008D91CEB030306F1FF3802D2984200F2B3
:10058C00D08046461B1AA4B2B3FBF7F007FB10331E
:10059C0044EA03440EFB00FEA64508D91CEB0404F8
:1005AC0000F1FF3302D2A64500F2B6801846A4EB48
:1005BC000E0440EA0640A5E7C1F120078B4022FA61
:1005CC0007FC4CEA030C06FA01FE20FA07F426FAA3
:1005DC0007F344EA0E0400FA01F84FEA1C404FEA14
:1005EC001449B3FBF0FE1FFA8CF600FB1E3349EAEC
:1005FC0003430EFB06F9994502FA01F20BD91CEBE9
:10060C0003030EF1FF3A80F08580994540F2828019
:10061C00AEF1020E6344A3EB0909A4B2B9FBF0F3EB
:10062C0000FB139944EA094403FB06F6A64208D9D9
:10063C001CEB040403F1FF3068D2A64266D9023BDE
:10064C00644443EA0E40A41BA0FB02E6B44273468A
:10065C00B14652D34FD05DB1B8EB030264EB090441
:10066C0004FA07F722FA01F31F43CC40C5E90074E2
:10067C0000214CE7C2F1200120FA01F30CFA02FC34
:10068C0026FA01F1964033434FEA1C471FFA8CFEC1
:10069C00B1FBF7F007FB1016190C41EA064100FB01
:1006AC000EF68E4204FA02F408D91CEB010100F19B
:1006BC00FF382DD28E422BD902386144891B9BB254
:1006CC00B1FBF7F607FB161143EA014306FB0EF1EB
:1006DC00994208D91CEB030306F1FF3814D2994256
:1006EC0012D9023E63445B1A46EA004136E73946AA
:1006FC00EDE6184602E7F045ADD2BEEB020366EB21
:10070C000C060138B146A6E74646ECE7034698E7E7
:10071C004046D3E7D6467EE76444023847E70846AE
:10072C000DE7023E63442DE7704700BF82B00D4BCE
:10073C00D3F8E02042F00402C3F8E020D3F8E02024
:10074C0002F004020092009AD3F8E02042F0010279
:10075C00C3F8E020D3F8E03003F001030193019BD0
:10076C0002B070470044025810B584B000240094C5
:10077C0001940294039400F067FA01238DF8003081
:10078C008DF8014001941F228DF8082087228DF8E6
:10079C0009208DF80A408DF80B408DF80C308DF83F
:1007AC000D308DF80E408DF80F40684600F06AFA57
:1007BC00042000F057FA04B010BD72B6FEE700003A
:1007CC0010B59CB04C22002109A8FFF7E5FD2022B2
:1007DC00002101A8FFF7E0FD022001F029FB002316
:1007EC000093214A936923F4404343F400439361FB
:1007FC00936903F440430093009B1B4B9B6913F4D8
:10080C00005FFAD00222099201240C9440230D932C
:10081C00129200231393042014900C21159116941A
:10082C001790189219911A931B9309A800F056FA75
:10083C00A8B93F23019303230293002303930823B6
:10084C0004934023059306934FF480620792089318
:10085C00012101A800F030FE18B91CB010BDFFF743
:10086C00ACFFFFF7AAFF00BF0048025808B5FFF71E
:10087C007BFF01F02FFBFFF7A3FFFFF757FF0020D3
:10088C0000F090F8012000F08DF8022000F08AF8BA
:10089C000121002000F0D8F80B494FF4E1330B6034
:1008AC000020486008814881888100F03BF940B9FC
:1008BC000221064801F0B2FA4FF47A7001F04AFBBB
:1008CC00F6E7FFF77AFF00BF300000200010025857
:1008DC00FEE7FEE7FEE7FEE7FEE77047704770476E
:1008EC0008B501F025FB08BD08B5002000F0F2F8B2
:1008FC0008BD000082B0074BD3F8F42042F002028E
:10090C00C3F8F420D3F8F43003F002030193019BF5
:10091C0002B070470044025870B588B01F4BD3F832
:10092C00E02042F00802C3F8E020D3F8E02002F007
:10093C0008020092009AD3F8E02042F00802C3F8B3
:10094C00E020D3F8E02002F008020192019AD3F8DB
:10095C00E82042F48022C3F8E820D3F8E83003F40E
:10096C0080230293029B4FF480730393022404941C
:10097C0006940123059307260796094D03A92846DB
:10098C0001F03CF94FF4007303930494079603A908
:10099C00284601F033F908B070BD00BF004402587E
:1009AC00000C0258022846D870B588B028BB234BDF
:1009BC00D3F8E02042F00202C3F8E020D3F8E03094
:1009CC0003F002030093009B1D4B33F81060039659
:1009DC00012304930024059403230693194B53F825
:1009EC00205003A9284601F009F922463146284631
:1009FC0001F00EFA204608B070BD01280DD00F4B47
:100A0C00D3F8E02042F00202C3F8E020D3F8E03043
:100A1C0003F002030293029BD6E7084BD3F8E020C5
:100A2C0042F01002C3F8E020D3F8E03003F01003DA
:100A3C000193019BC8E76FF0010070470044025816
:100A4C00EC2A0008F42A000810B586B01C4BD3F829
:100A5C00E02042F00402C3F8E020D3F8E03003F0C9
:100A6C0004030093009B4FF4005301930223039360
:100A7C00049341B90023029301A9124801F0BEF876
:100A8C00002006B010BD04464FF48813029301A950
:100A9C000C4801F0B3F80C4B03EBC4040B49204693
:100AAC0001F075FA0A4A0021204601F067FA00228B
:100ABC000F21282000F0A0F8282000F0ADF8DFE787
:100ACC000044025800080258D40000200D003016D3
:100ADC00F70A000808B5034B03EBC00001F05EFAFF
:100AEC0008BD00BFD4000020704708B50020FFF7F8
:100AFC00FBFF08BD08B50A4A126802600A6842602A
:100B0C000C2242614A8902614A6882600A89C26089
:100B1C008A8982614FF40042C26101F000FF08BD76
:100B2C000000002070B938B50D469422084C02FB29
:100B3C0000442046FFF7F0FE29462046FFF7DAFF77
:100B4C0018B938BD6FF0010070476FF00300F8E77B
:100B5C0040000020002807DB00F01F0240090123A1
:100B6C009340024A42F82030704700BF00E100E099
:100B7C00002804DB0901C9B2044B1954704700F07A
:100B8C000F000901C9B2024B1954704700E400E090
:100B9C0014ED00E000B500F00700C0F1070CBCF14B
:100BAC00040F28BF4FF0040C031D062B0FD9C31ED6
:100BBC004FF0FF3E0EFA0CF021EA000199400EFABC
:100BCC0003FE22EA0E0241EA02005DF804FB002358
:100BDC00EEE700000649CB6823F4E0631B041B0C12
:100BEC00000200F4E0600343024A1A43CA607047F3
:100BFC0000ED00E00000FA0510B50446054BD8687E
:100C0C00C0F30220FFF7C6FF01462046FFF7B0FFF6
:100C1C0010BD00BF00ED00E008B5FFF79BFF08BD5D
:100C2C000138B0F1807F0BD24FF0E0235861054AB8
:100C3C00F02182F823100020986107221A61704776
:100C4C000120704700ED00E0BFF35F8F044B5A6A40
:100C5C0022F480325A620022C3F89420704700BFFD
:100C6C0000ED00E040F00100054BC3F894005A6A17
:100C7C0042F480325A62BFF34F8FBFF36F8F7047CD
:100C8C0000ED00E04378144AC2F89830D2F8A03056
:100C9C0023F00103C2F8A0304368C2F89C30017BFA
:100CAC00C37A1B0643EA0173817A43EAC143417B51
:100CBC0043EA8143817B43EA4143C17B43EA0143DD
:100CCC00417A43EA0123017A43EA410301780B4359
:100CDC00C2F8A030704700BF00ED00E0002800F023
:100CEC00D58238B50446036813F0010F25D0A04A0D
:100CFC00136903F03803926A102B15D0182B0FD000
:100D0C006368B3F5803F3FD0002B53D1984B1A68E2
:100D1C0022F480321A601A6822F480221A6038E0B9
:100D2C0002F00302022AEBD1914B1B6813F4003F33
:100D3C0003D06368002B00F0AB82236813F0020F22
:100D4C0000F088808A4A1369926A13F038035AD0EB
:100D5C00182B55D0E368002B00F0A98084490A6851
:100D6C0022F0190213430B6001F0EEF80546804B9C
:100D7C001B6813F0040F40F0918001F0E5F8401B64
:100D8C000228F4D903208AE2794A136843F48033A9
:100D9C00136063682BB301F0D7F80546744B1B68DE
:100DAC0013F4003FC9D101F0CFF8401B6428F5D9EA
:100DBC00032074E2B3F5A02F09D06D4B1A6822F40E
:100DCC0080321A601A6822F480221A60E1E7684BBC
:100DDC001A6842F480221A601A6842F480321A604F
:100DEC00D7E701F0B1F80546614B1B6813F4003FDF
:100DFC00A3D001F0A9F8401B6428F5D903204EE2DA
:100E0C0012F0030FA6D15A4B1B6813F0040F03D03A
:100E1C00E368002B00F03E82554A136823F0190357
:100E2C00E1680B43136001F08FF80546504B1B68CB
:100E3C0013F0040F06D101F087F8401B0228F5D9F6
:100E4C0003202CE24A4A536823F0FE43216943EA0B
:100E5C0001635360236813F0100F51D0444A136997
:100E6C0003F03803926A082B39D0182B33D0E3697E
:100E7C00002B69D03E4A136843F08003136001F0E5
:100E8C0063F805463A4B1B6813F4807F53D101F08D
:100E9C005BF8401B0228F5D9032000E2344A536862
:100EAC0023F0FE43216943EA01635360D2E7304AE1
:100EBC00136823F00103136001F046F805462C4B30
:100ECC001B6813F0040FC5D001F03EF8401B02283C
:100EDC00F5D90320E3E102F00302012AC7D1244B28
:100EEC001B6813F4807F03D0E369802B40F0D4811E
:100EFC001F4AD36823F07C53216A43EA0163D36011
:100F0C00236813F0080F49D06369002B32D0184ABC
:100F1C00536F43F00103536701F016F80546144B69
:100F2C005B6F13F0020F39D101F00EF8401B022851
:100F3C00F5D90320B3E10E4AD36823F07C53216A20
:100F4C0043EA0163D360DBE7094A136823F08003AB
:100F5C00136000F0F9FF0546054B1B6813F4807F06
:100F6C00CED000F0F1FF401B0228F5D9032096E10A
:100F7C00004402589D4A536F23F00103536700F05D
:100F8C00E3FF0546994B5B6F13F0020F06D000F0A0
:100F9C00DBFF401B0228F5D9032080E1236813F006
:100FAC00200F29D0A3699BB1904A136843F4805356
:100FBC00136000F0C9FF05468C4B1B6813F4005FEF
:100FCC001AD100F0C1FF401B0228F5D9032066E1BD
:100FDC00864A136823F48053136000F0B5FF05466E
:100FEC00824B1B6813F4005F06D000F0ADFF401B72
:100FFC000228F5D9032052E1236813F0040F21D104
:10100C00636A002B00F04A81784A126902F03802B8
:10101C00182A00F0F180022B75D0744A136823F063
:10102C008073136000F090FF0446704B1B6813F044
:10103C00007F00F0D88000F087FF001B0228F4D955
:10104C0003202CE16A4A136843F48073136000F0A8
:10105C007BFF0546664B1B6813F4807F06D100F0BE
:10106C0073FF401B6428F5D9032018E1A368012BFA
:10107C000AD00BBB5D4B1A6F22F001021A671A6F74
:10108C0022F004021A6704E0584A136F43F001037C
:10109C001367A36833B300F057FF0546534B1B6F20
:1010AC0013F0020FACD100F04FFF401B41F288331C
:1010BC009842F3D90320F2E0052B09D04B4B1A6F61
:1010CC0022F001021A671A6F22F004021A67E0E795
:1010DC00464B1A6F42F004021A671A6F42F0010273
:1010EC001A67D6E700F030FF0546404B1B6F13F034
:1010FC00020F85D000F028FF401B41F28833984244
:10110C00F3D90320CBE0394A136823F080731360C2
:10111C0000F01AFF0546354B1B6813F0007F06D014
:10112C0000F012FF401B0228F5D90320B7E02F4B2B
:10113C00996A304A0A40A16AE06A41EA00110A43FE
:10114C009A62226B013AC2F30802616B01394902BF
:10115C0089B20A43A16B0139090401F4FE010A4367
:10116C00E16B0139090601F0FE410A431A63DA6AA0
:10117C0022F00102DA625A6B6FF3CF02A16C42EAE1
:10118C00C1025A63DA6A22F00C02216C0A43DA6259
:10119C00DA6A22F00202616C0A43DA62DA6A42F419
:1011AC008032DA62DA6A42F40032DA62DA6A42F4E3
:1011BC008022DA62DA6A42F00102DA621A6842F0DC
:1011CC0080721A6000F0C0FE0446084B1B6813F0D6
:1011DC00007F06D100F0B8FE001B0228F5D90320D1
:1011EC005DE000205BE0002059E000BF00440258A5
:1011FC00004802580CFCFFFF30498A6A086B012B2F
:10120C004ED002F00303A16A8B424BD1C2F30512FC
:10121C00E36A9A4248D1C0F30802236B013B9A421D
:10122C0044D1C0F34622636B013B9A4240D1C0F3D8
:10123C000642A36B013B9A423CD1C0F30660E36BC0
:10124C00013B984238D11D4B5B6BC3F3CC03A26CB2
:10125C009A4201D1002022E0184AD36A23F00103FC
:10126C00D36200F071FE054600F06EFEA842FBD082
:10127C00124A536B6FF3CF03A16C43EAC103536360
:10128C00D36A43F00103D362002008E001207047C9
:10129C00012004E0012002E0012000E0002038BD24
:1012AC000120FCE70120FAE70120F8E70120F6E72E
:1012BC000120F4E70120F2E70120F0E70044025896
:1012CC00754B1B6903F03803102B00F0DE80182BD4
:1012DC000FD0002B40F0DB806F4B1B6813F0200FFE
:1012EC0000F0D7806C4B1B68C3F3C1036B48D8402C
:1012FC00704710B4684B9A6A02F003029C6AC4F3FC
:10130C000510D96A01F001015B6BC3F3CC0301FB3F
:10131C0003F307EE903AF8EE677A14F47C7F77D0FB
:10132C00012A4AD0022A76D0002A40F091805A4BEA
:10133C001B6813F0200F23D057490A68C2F3C1026F
:10134C00564BD34007EE103AF8EE476A07EE100AF8
:10135C00B8EE476A86EE867A0B6BC3F3080306EE8B
:10136C00903AF8EE666A9FED4E6A67EE867A76EEF4
:10137C00A77AF7EE006A77EEA67A27EE277A38E09E
:10138C0007EE100AF8EE476A9FED466A86EE267A5B
:10139C00414B1B6BC3F3080306EE903AF8EE666AFA
:1013AC009FED3F6A67EE867A76EEA77AF7EE006AD3
:1013BC0077EEA67A27EE277A1BE007EE100AF8EEF6
:1013CC00476A9FED396A86EE267A334B1B6BC3F363
:1013DC00080306EE903AF8EE666A9FED316A67EE06
:1013EC00867A76EEA77AF7EE006A77EEA67A27EE83
:1013FC00277A294B1B6BC3F34623013307EE903A34
:10140C00F8EE677AC7EE276AFCEEE67A17EE900ADA
:10141C005DF8044B704707EE100AF8EE476A9FED33
:10142C00236A86EE267A1C4B1B6BC3F3080306EE6D
:10143C00903AF8EE666A9FED1A6A67EE867A76EE57
:10144C00A77AF7EE006A77EEA67A27EE277AD0E72E
:10145C0007EE100AF8EE476A9FED136A86EE267ABD
:10146C000D4B1B6BC3F3080306EE903AF8EE666A5D
:10147C009FED0B6A67EE867A76EEA77AF7EE006A36
:10148C0077EEA67A27EE277AB3E709487047094822
:10149C0070470248704700BF004402580090D003C8
:1014AC00000000390024744C0024744A0024F44ACF
:1014BC0000127A0000093D00002800F0328170B55E
:1014CC000D4604469B4B1B6803F00F038B420BD25B
:1014DC00984A136823F00F030B431360136803F04F
:1014EC000F038B4240F01F81236813F0040F0CD0C4
:1014FC002269914B9B6903F070039A4205D98E497E
:10150C008B6923F070031A438A61236813F0080F68
:10151C000CD06269884BDB6903F070039A4205D9E1
:10152C008549CB6923F070031A43CA61236813F011
:10153C00100F0CD0A269804BDB6903F4E0639A4274
:10154C0005D97D49CB6923F4E0631A43CA6123684A
:10155C0013F0200F0CD0E269774B1B6A03F0700379
:10156C009A4205D974490B6A23F070031A430A6234
:10157C00236813F0020F0CD0E2686F4B9B6903F0E9
:10158C000F039A4205D96C498B6923F00F031A4358
:10159C008A61236813F0010F41D0674A936923F4E1
:1015AC007063A1680B4393616368022B0AD0032B11
:1015BC0027D0012B2CD0604A126812F0040F06D1F0
:1015CC000120ADE0126812F4003F00F0AE805A49E1
:1015DC000A6922F0070213430B6100F0B5FC0646C2
:1015EC00554B1B6903F038036268B3EBC20F16D07E
:1015FC0000F0AAFC801B41F288339842F0D90320FA
:10160C008EE04D4A126812F0007FE0D1012087E095
:10161C00494A126812F4807FD9D1012080E02368F6
:10162C0013F0020F0CD0E268434B9B6903F00F03DD
:10163C009A4205D240498B6923F00F031A438A6101
:10164C003C4B1B6803F00F03AB420AD9394A1368B1
:10165C0023F00F032B431360136803F00F03AB420B
:10166C0065D1236813F0040F0CD02269324B9B69AF
:10167C0003F070039A4205D22F498B6923F0700353
:10168C001A438A61236813F0080F0CD062692A4B45
:10169C00DB6903F070039A4205D22749CB6923F02A
:1016AC0070031A43CA61236813F0100F0CD0A2699F
:1016BC00214BDB6903F4E0639A4205D21E49CB69E6
:1016CC0023F4E0631A43CA61236813F0200F0CD093
:1016DC00E269194B1B6A03F070039A4205D2164952
:1016EC000B6A23F070031A430A62FFF7E9FD1249F3
:1016FC008B69C3F30323114AD35C03F01F03D84057
:10170C008B6903F00F03D35C03F01F0320FA03F380
:10171C000B4A13600B4B18600B4B186800F0B2FBB4
:10172C0070BD012070470120FAE70120F8E7012085
:10173C00F6E700BF0020005200440258182B0008A6
:10174C000C000020100000200800002008B5FFF756
:10175C00B7FD0B4A9369C3F303230A49CB5C03F02F
:10176C001F0320FA03F3926902F00F02885C00F069
:10177C001F0023FA00F0044A1060044A136008BDED
:10178C0000440258182B00080C0000201000002008
:10179C0008B5FFF7DBFF054BDB69C3F30213044A03
:1017AC00D35C03F01F03D84008BD00BF00440258AF
:1017BC00182B000808B5FFF7C9FF054BDB69C3F30D
:1017CC000223044AD35C03F01F03D84008BD00BFBA
:1017DC0000440258182B000808B5FFF7B7FF054B5B
:1017EC001B6AC3F30213044AD35C03F01F03D840F3
:1017FC0008BD00BF00440258182B000810B4794BE8
:10180C009A6A9C6AC4F3053CD96AC1F30011DB6B7C
:10181C00C3F3CC0301FB03F314F47C3F00F0DD8035
:10182C0002F0030207EE903AF8EE677A012A4BD0E9
:10183C00022A00F09880002A40F0B280694B1B68A5
:10184C0013F0200F23D067490A68C2F3C102664B1C
:10185C00D34007EE103AF8EE476A07EE10CAB8EE1E
:10186C00476A86EE867A8B6BC3F3080306EE903AD2
:10187C00F8EE666A9FED5D6A67EE867A76EEA77A79
:10188C00F7EE006A77EEA67A27EE277A38E007EEB5
:10189C0010CAF8EE476A9FED566A86EE267A514BCF
:1018AC009B6BC3F3080306EE903AF8EE666A9FED65
:1018BC004F6A67EE867A76EEA77AF7EE006A77EED5
:1018CC00A67A27EE277A1BE007EE10CAF8EE476AD5
:1018DC009FED486A86EE267A424B9B6BC3F3080356
:1018EC0006EE903AF8EE666A9FED406A67EE867AED
:1018FC0076EEA77AF7EE006A77EEA67A27EE277ACD
:10190C00384A936BC3F3462307EE903AF8EE677AA6
:10191C00F7EE006A77EEA67A87EE276ABCEEC66A07
:10192C0080ED006A936BC3F3064307EE903AF8EE32
:10193C00677A77EEA67A87EE276ABCEEC66A80EDE8
:10194C00016A936BC3F3066307EE903AF8EE677A7D
:10195C0077EEA67AC7EE276AFCEEE66AC0ED026A5D
:10196C005DF8044B704707EE10CAF8EE476A9FED1E
:10197C00226A86EE267A1B4B9B6BC3F3080306EE9A
:10198C00903AF8EE666A9FED196A67EE867A76EE03
:10199C00A77AF7EE006A77EEA67A27EE277AAFE7FA
:1019AC0007EE10CAF8EE476A9FED126A86EE267AA9
:1019BC000C4B9B6BC3F3080306EE903AF8EE666A89
:1019CC009FED0A6A67EE867A76EEA77AF7EE006AE2
:1019DC0077EEA67A27EE277A92E70023036043601E
:1019EC008360BDE7004402580090D003000000392A
:1019FC000024744C0024744A0024F44A10B4794B2B
:101A0C009A6A9C6AC4F3055CD96AC1F300215B6CC9
:101A1C00C3F3CC0301FB03F314F07C7F00F0DD80F7
:101A2C0002F0030207EE903AF8EE677A012A4BD0E7
:101A3C00022A00F09880002A40F0B280694B1B68A3
:101A4C0013F0200F23D067490A68C2F3C102664B1A
:101A5C00D34007EE103AF8EE476A07EE10CAB8EE1C
:101A6C00476A86EE867A0B6CC3F3080306EE903A4F
:101A7C00F8EE666A9FED5D6A67EE867A76EEA77A77
:101A8C00F7EE006A77EEA67A27EE277A38E007EEB3
:101A9C0010CAF8EE476A9FED566A86EE267A514BCD
:101AAC001B6CC3F3080306EE903AF8EE666A9FEDE2
:101ABC004F6A67EE867A76EEA77AF7EE006A77EED3
:101ACC00A67A27EE277A1BE007EE10CAF8EE476AD3
:101ADC009FED486A86EE267A424B1B6CC3F30803D3
:101AEC0006EE903AF8EE666A9FED406A67EE867AEB
:101AFC0076EEA77AF7EE006A77EEA67A27EE277ACB
:101B0C00384A136CC3F3462307EE903AF8EE677A23
:101B1C00F7EE006A77EEA67A87EE276ABCEEC66A05
:101B2C0080ED006A136CC3F3064307EE903AF8EEAF
:101B3C00677A77EEA67A87EE276ABCEEC66A80EDE6
:101B4C00016A136CC3F3066307EE903AF8EE677AFA
:101B5C0077EEA67AC7EE276AFCEEE66AC0ED026A5B
:101B6C005DF8044B704707EE10CAF8EE476A9FED1C
:101B7C00226A86EE267A1B4B1B6CC3F3080306EE17
:101B8C00903AF8EE666A9FED196A67EE867A76EE01
:101B9C00A77AF7EE006A77EEA67A27EE277AAFE7F8
:101BAC0007EE10CAF8EE476A9FED126A86EE267AA7
:101BBC000C4B1B6CC3F3080306EE903AF8EE666A06
:101BCC009FED0A6A67EE867A76EEA77AF7EE006AE0
:101BDC0077EEA67A27EE277A92E70023036043601C
:101BEC008360BDE7004402580090D0030000003928
:101BFC000024744C0024744A0024F44AF0B583B0D9
:101C0C0000236BE085685E000324B44025EA0405DC
:101C1C00CC68B4402C438460456825EA0C054C68BC
:101C2C00C4F300149C402C43446069E0DD08083583
:101C3C0050F8254003F0070C4FEA8C0C4FF00F0EB8
:101C4C000EFA0CFE24EA0E0E0C6904FA0CF444EAAB
:101C5C000E0440F825406BE0092400E0002404FA4F
:101C6C000EF42C430CF1020C664D45F82C404FF051
:101C7C00B0442568D44325EA02064F6817F4801F48
:101C8C0001D042EA05064FF0B0452E606D6804EABB
:101C9C0005064F6817F4001F01D042EA05064FF005
:101CAC00B0456E60D5F8845004EA05064F6817F409
:101CBC00003F01D042EA05064FF0B045C5F88460FC
:101CCC00D5F880502C404E6816F4803F01D042EA83
:101CDC0005044FF0B042C2F8804001330A6832FA72
:101CEC0003F400F08C804FF0010C0CFA03FC1CEA9E
:101CFC000202F2D04C6804F00304013C012C81D99F
:101D0C004C6804F00304032C0CD0C4685D004FF045
:101D1C00030C0CFA05FC24EA0C0C8C68AC4044EA6D
:101D2C000C04C4604C6804F00304022C3FF47EAF36
:101D3C0004684FEA430E4FF0030C0CFA0EFC24EA35
:101D4C000C0C4C6804F0030404FA0EF444EA0C0482
:101D5C0004604C6814F4403FBFD02B4CD4F8F450C2
:101D6C0045F00205C4F8F450D4F8F44004F0020431
:101D7C000194019C4FEA930C0CF10205214C54F890
:101D8C00255003F0030E4FEA8E0E0F2404FA0EF4C6
:101D9C0025EA04051D4CA0423FF460AF04F58064B5
:101DAC00A0421ED004F58064A0421CD004F58064CF
:101DBC00A0421AD004F58064A04218D004F58064C7
:101DCC00A04216D004F58064A04214D004F58064BF
:101DDC00A04212D004F50064A0423FF43DAF0A24A7
:101DEC003DE701243BE7022439E7032437E70424C9
:101DFC0035E7052433E7062431E707242FE703B042
:101E0C00F0BD00BF00040058004402580000025806
:101E1C000AB181617047090481617047436901EA25
:101E2C00030221EA030141EA02418161704700008B
:101E3C00134BDB6813F0040F07D1114BDB6803F075
:101E4C00070383421AD00120704710B50C4AD3689F
:101E5C0023F007030343D36000F076F80446084BE5
:101E6C005B6813F4005F07D100F06EF8001BB0F54F
:101E7C007A7FF4D9012000E0002010BD00207047CB
:101E8C0000480258104B1B780BB90120704710B555
:101E9C0004464FF47A70B0FBF3F30C4A1068B0FBB5
:101EAC00F3F0FEF7BDFE68B90F2C01D901200AE052
:101EBC00002221464FF0FF30FEF79EFE044B1C60C3
:101ECC00002000E0012010BD0400002010000020C4
:101EDC000800002010B50320FEF77CFEFFF7F0F998
:101EEC000F498B69C3F303230E4AD35C03F01F0322
:101EFC00D8408B6903F00F03D35C03F01F0320FA67
:101F0C0003F3094A1360094B18600020FFF7BAFF6E
:101F1C0010B10124204610BD0446FEF7EBFCF9E796
:101F2C0000440258182B00080C0000201000002060
:101F3C00034B1B78034A11680B441360704700BFB6
:101F4C0004000020DC000020014B1868704700BF23
:101F5C00DC00002038B50446FFF7F6FF0546B4F167
:101F6C00FF3F02D0044B1B781C44FFF7EDFF401BD6
:101F7C00A042FAD338BD00BF0400002018B121B92B
:101F8C00426008467047012070470120704710B12D
:101F9C0001600020704701207047000010B50368F5
:101FAC00C3F3014203F01F03012199401301044ABA
:101FBC009C580C4203D09950436803B1984710BD0C
:101FCC0088000058026852E8003F23F4907342E8FE
:101FDC0000310029F6D1026802F1080353E8001F12
:101FEC000D4B0B40083242E800310029F3D1C36E8F
:101FFC00012B06D02023C0F88C300023C366436726
:10200C007047026852E8003F23F0100342E80031A9
:10201C000029F6D1EEE700BFFEFFFFEF704700008E
:10202C0070B586B004468368026913434269134352
:10203C00C269134301680868904A02401A430A6057
:10204C002268536823F44053E1680B435360A16941
:10205C0022688B4B9A4201D0236A19439068894BB2
:10206C0003400B4393602268D36A23F00F03616A29
:10207C000B43D3622368844A934229D0834A934208
:10208C0000F09480824A934200F0AA80814A9342E5
:10209C0000F0C080804A934200F0D6807F4A934281
:1020AC0000F008817E4A934200F02D817D4A9342D4
:1020BC0000F040817C4A934200F053817B4A93426A
:1020CC0000F078816E4A934200F09D81802233E0CB
:1020DC00774A526D02F03802282A65D8DFE812F0F0
:1020EC0029006400640064006400640064006400FF
:1020FC00AB0164006400640064006400640064006C
:10210C002B006400640064006400640064006400DC
:10211C005E00640064006400640064006400640099
:10212C006000640064006400640064006400640087
:10213C006200012200E0082251498B4200F0948198
:10214C00E069B0F5004F00F00A82202A00F26182AB
:10215C00202A00F2AE82DFE812F063027D02AC02AC
:10216C00AC028002AC02AC02AC028502AC02AC0246
:10217C00AC02AC02AC02AC02AC028A02AC02AC0205
:10218C00AC02AC02AC02AC02AC02AC02AC02AC02D3
:10219C00AC02AC02AC02AC02AC0296021022CBE751
:1021AC002022C9E74022C7E78022C5E7404A526D8A
:1021BC0002F00702052A11D8DFE812F006003F01F1
:1021CC0008000A000C000E000022B5E70822B3E755
:1021DC001022B1E72022AFE74022ADE78022ABE727
:1021EC00334A526D02F00702052A11D8DFE812F0CB
:1021FC000600270108000A000C000E0000229BE7D5
:10220C00082299E7102297E7202295E7402293E7CE
:10221C00802291E7264A526D02F00702052A11D856
:10222C00DFE812F006000F0108000A000C000E0097
:10223C00002281E708227FE710227DE720227BE73E
:10224C00402279E7802277E7194A526D02F00702A3
:10225C00052A11D8DFE812F00600F70008000A0082
:10226C000C000E00002267E7082265E7102263E7E6
:10227C00202261E740225FE780225DE7F369FFCF10
:10228C00000C0058FFF4FF11001001400044004006
:10229C0000480040004C0040005000400014014039
:1022AC0000780040007C004000180140001C0140F8
:1022BC0000440258694A526D02F03802282A20D88C
:1022CC00DFE802F0151F1F1F1F1F1F1FC31F1F1F3B
:1022DC001F1F1F1F171F1F1F1F1F1F1F191F1F1F10
:1022EC001F1F1F1F1B1F1F1F1F1F1F1F1D00012232
:1022FC0022E7082220E710221EE720221CE74022BA
:10230C001AE7802218E7554A526D02F00702052A97
:10231C000ED8DFE802F0039C0507090B00220BE73F
:10232C00082209E7102207E7202205E7402203E7ED
:10233C00802201E7494A526D02F00702052A0ED8A5
:10234C00DFE802F003870507090B0022F4E60822F8
:10235C00F2E61022F0E62022EEE64022ECE68022A5
:10236C00EAE63E4A526D02F03802282A20D8DFE80D
:10237C0002F0151F1F1F1F1F1F1F721F1F1F1F1F64
:10238C001F1F171F1F1F1F1F1F1F191F1F1F1F1F5F
:10239C001F1F1B1F1F1F1F1F1F1F1D000122CBE60E
:1023AC000822C9E61022C7E62022C5E64022C3E671
:1023BC008022C1E6294A526D02F03802282A20D820
:1023CC00DFE802F0151F1F1F1F1F1F1F4E1F1F1FAF
:1023DC001F1F1F1F171F1F1F1F1F1F1F191F1F1F0F
:1023EC001F1F1F1F1B1F1F1F1F1F1F1F1D00012231
:1023FC00A2E60822A0E610229EE620229CE64022BD
:10240C009AE6802298E602F50E32926D02F00702EF
:10241C00052A0ED8DFE802F003260507090B022275
:10242C008AE6082288E6102286E6202284E64022EC
:10243C0082E6802280E604227EE604227CE60422E8
:10244C007AE6042278E6042276E6042274E6042274
:10245C0072E6042270E604226EE600BF00440258C5
:10246C00042269E6042267E6202A27D8022AC0F053
:10247C000E81023A1E2A00F20C81DFE812F02600CF
:10248C000A0156000A010A010A015B000A010A014D
:10249C000A010A010A010A010A0160000A010A0183
:1024AC000A010A010A010A010A010A010A010A01C8
:1024BC000A010A010A010A010A016C00402A02D130
:1024CC004FF4004006E00120F4E0FFF785F9002806
:1024DC0000F0E180626A7E4B33F81220B0FBF2F31D
:1024EC00656805EB4501994200F2D780B3EB053FD7
:1024FC0000F2D580002633463146FDF79FFF0902D6
:10250C0041EA106100026B08C0182A46334641F1BB
:10251C000001FDF793FFA0F540726E4B9A4200F25A
:10252C00C0802368D8603046C4E003A8FFF766F982
:10253C000498CCE76846FFF761FA0198C7E7664B49
:10254C001B6813F0200F08D0634B1B68C3F3C10347
:10255C006248D840BEE76248BCE76048BAE7202A28
:10256C0015D8202A00F29F80DFE802F015369D9DD9
:10257C00399D9D9D3E9D9D9D9D9D9D9D439D9D9D9C
:10258C009D9D9D9D9D9D9D9D9D9D9D9D4F00402A2A
:10259C0006D001208EE0FFF7FBF8002800F08580C4
:1025AC00626A4B4B33F81230B0FBF3F0626853089D
:1025BC0003EB4003B3FBF2F3A3F110014FF6EF7200
:1025CC00914274D89AB222F00F02C3F34203134320
:1025DC002268D36000206DE0FFF7ECF8DDE703A87C
:1025EC00FFF70CF90498D8E76846FFF707FA01984B
:1025FC00D3E7394B1B6813F0200F08D0364B1B6800
:10260C00C3F3C1033548D840CAE73548C8E7334857
:10261C00C6E7402A02D14FF4004005E0012049E012
:10262C00FFF7B6F800284FD0626A294B33F8123006
:10263C00B0FBF3F0636800EB5300B0FBF3F0A0F1D8
:10264C0010024FF6EF739A4240D8236880B2D860DC
:10265C0000202FE0FFF7AEF8E4E703A8FFF7CEF871
:10266C000498DFE76846FFF7C9F90198DAE71A4BD7
:10267C001B6813F0200F08D0174B1B68C3F3C10362
:10268C001648D840D0E71648CEE71448CCE70120CE
:10269C0010E001200EE000200CE001200AE00120F7
:1026AC0008E0012006E0012004E0002002E0012007
:1026BC0000E001200123A4F86A30A4F8683000235C
:1026CC006367A36706B070BD0020F3E70120F1E754
:1026DC00002B0008FFFC0F00004402580090D003B0
:1026EC0000093D00836A13F0080F06D00268536896
:1026FC0023F40043816B0B435360836A13F0010F87
:10270C0006D00268536823F40033C16A0B4353604C
:10271C00836A13F0020F06D00268536823F48033E7
:10272C00016B0B435360836A13F0040F06D00268ED
:10273C00536823F48023416B0B435360836A13F07B
:10274C00100F06D00268936823F48053C16B0B43BF
:10275C009360836A13F0200F06D00268936823F409
:10276C000053016C0B439360836A13F0400F0AD043
:10277C000268536823F48013416C0B435360436C21
:10278C00B3F5801F0BD0836A13F0800F06D002685C
:10279C00536823F40023C16C0B43536070470268E9
:1027AC00536823F4C003816C0B435360EBE72DE9B2
:1027BC00F84305460E4617469946DDF820802B68EF
:1027CC00DC6936EA04040CBF01240024BC423AD173
:1027DC00B8F1FF3FF3D0FFF7B7FBA0EB0900404582
:1027EC0034D8B8F1000F33D02B681A6812F0040FEC
:1027FC00E5D0B6F1400218BF0122802EDFD0002AAE
:10280C00DDD0DA6912F0080F11D1DA6912F4006F19
:10281C00D5D04FF400621A622846FFF7D3FB202371
:10282C00C5F89030002385F8843003200CE0082490
:10283C001C622846FFF7C6FBC5F89040002385F8BC
:10284C008430012000E00020BDE8F8830320FBE782
:10285C000320F9E730B583B004460023C0F890306C
:10286C00FFF772FB05462268126812F0080F10D1B0
:10287C0023681B6813F0040F28D12023C4F8883078
:10288C00C4F88C300020E066206784F8840003B024
:10289C0030BD6FF07E430093034600224FF40011CD
:1028AC002046FFF784FF0028E2D0226852E8003F60
:1028BC0023F0800342E800310029F6D12023C4F82C
:1028CC008830002384F884300320E0E76FF07E43E7
:1028DC0000932B4600224FF480012046FFF767FF40
:1028EC000028CAD0226852E8003F23F4907342E8D3
:1028FC0000310029F6D1226802F1080353E8003FA9
:10290C0023F00103083242E800310029F3D12023DF
:10291C00C4F88C30002384F884300320B7E778B3F4
:10292C0010B50446D0F888300BB32423C4F8883093
:10293C002268136823F001031360A36AE3B92046ED
:10294C00FFF76EFB012811D02268536823F49043E3
:10295C0053602268936823F02A03936022681368FB
:10296C0043F0010313602046FFF774FF10BD80F89D
:10297C008430FFF753FBD8E72046FFF7B3FEDEE7C2
:10298C00012070472B4AD2F8883043F47003C2F808
:10299C008830294B1B6803F00F03062B06D8264AF8
:1029AC00136823F00F0343F007031360234B1A68DB
:1029BC0042F001021A6000221A611968204A0A408A
:1029CC001A601D4B1B6813F0080F06D01A4A1368C7
:1029DC0023F00F0343F007031360184B00229A6196
:1029EC00DA611A62174999621749D9621749196352
:1029FC005A639963DA6319645A64196821F4802163
:102A0C0019601A66D3F8D43013F4805F10D10B4BD5
:102A1C00D3F8D42042F48052C3F8D4200C4A43F2A9
:102A2C00D2011160D3F8D42022F48052C3F8D42000
:102A3C00704700BF00ED00E0002000520044025837
:102A4C007FEDF6EA000202020000FF0180020101A4
:102A5C0000400052054AD36843F00203D360034B95
:102A6C005B6813F4005FFAD0704700BF004802584F
:102A7C00DFF838D0FFF7EEFFFFF784FF0C480D4965
:102A8C000D4A002302E0D458C4500433C4188C42BD
:102A9C00F9D30A4A0A4C002301E013600432A24223
:102AAC00FBD3FDF751FCFDF7E1FE7047000002205F
:102ABC000000002014000020382B00081400002017
:102ACC00E0000020FEE70000F8B500BFF8BC08BC31
:102ADC009E467047F8B500BFF8BC08BC9E467047D0
:102AEC0001000200004000000004025800100258CF
:102AFC0000040258010002000400060008000A004D
:102B0C000C001000200040008000000100000000BC
:0C2B1C000102030401020304060708097B
:082B280050D9FF7F01000000FD
:042B30003503000861
:042B34000D03000885
:102B38000048004001000000100000000090D00391
:042B48000090D00326
:0400000508002A7D48
:00000001FF
