:020000040800F2
:10000000000002202D260008E1220008E32200085B
:10001000E5220008E7220008E922000800000000AD
:10002000000000000000000000000000EB220008BB
:10003000ED22000800000000EF220008F122000875
:1000400081260008812600088126000881260008F4
:1000500081260008812600088126000881260008E4
:1000600081260008812600088126000881260008D4
:1000700081260008812600088126000881260008C4
:1000800081260008812600088126000881260008B4
:1000900081260008812600088126000881260008A4
:1000A0008126000881260008812600088126000894
:1000B0008126000881260008812600088126000884
:1000C0008126000881260008812600088126000874
:1000D0008126000881260008812600088126000864
:1000E000F92200088126000800000000812600088F
:1000F0008126000881260008812600088126000844
:100100008126000881260008812600088126000833
:100110008126000881260008812600088126000823
:100120008126000881260008812600088126000813
:100130008126000881260008812600088126000803
:1001400000000000000000000000000000000000AF
:1001500081260008812600088126000881260008E3
:1001600081260008812600088126000881260008D3
:100170008126000881260008812600080000000072
:1001800081260008812600088126000881260008B3
:1001900081260008812600088126000881260008A3
:1001A0008126000881260008812600080000000042
:1001B0008126000881260008812600088126000883
:1001C00081260008812600080000000000000000D1
:1001D0000000000000000000812600080000000070
:1001E000000000000000000000000000000000000F
:1001F00000000000000000008126000881260008A1
:1002000081260008812600080000000081260008E1
:100210008126000881260008812600088126000822
:100220008126000800000000812600080000000070
:1002300081260008812600080000000081260008B1
:1002400081260008812600088126000881260008F2
:1002500081260008812600088126000881260008E2
:1002600081260008812600088126000881260008D2
:100270008126000881260008812600080000000071
:1002800081260008812600088126000881260008B2
:100290000000000081260008812600080000000000
:1002A0000000000081260008812600088126000841
:1002B0008126000881260008812600088126000882
:0C02C00081260008812600088126000825
:1002CC0053B94AB9002908BF00281CBF4FF0FF31B1
:1002DC004FF0FF3000F00CB8ADF1080C6DE904CE16
:1002EC0002F0F6F9DDF804E0DDE9022304B0704712
:1002FC00704700BF10B5054C237833B9044B13B1CC
:10030C000448AFF300800123237010BD14000020BB
:10031C0000000000D429000808B5034B1BB10349A9
:10032C000348AFF3008008BD000000001800002057
:10033C00D429000882B00D4BD3F8E02042F004021F
:10034C00C3F8E020D3F8E02002F004020092009AF7
:10035C00D3F8E02042F00102C3F8E020D3F8E030FB
:10036C0003F001030193019B02B070470044025853
:10037C0030B585B00024009401940294039400F0ED
:10038C0083F901238DF800308DF8014001941F2270
:10039C008DF8082087228DF809208DF80A408DF8F9
:1003AC000B408DF80C308DF80D308DF80E408DF81B
:1003BC000F40684600F086F9042000F073F905B090
:1003CC0030BD72B6FEE7000010B59CB04C22002187
:1003DC0009A802F050F92022002101A802F04BF9E3
:1003EC00022000F0E1FA00230093214A936923F4E0
:1003FC00404343F400439361936903F440430093F7
:10040C00009B1B4B9B6913F4005FFAD002220992EC
:10041C0001240C9440230D93129200231393042077
:10042C0014900C21159116941790189219911A93F7
:10043C001B9309A800F0E2FAA8B93F230193032308
:10044C0002930023039308230493402305930693FC
:10045C004FF4806207920893012101A800F0BCFEC2
:10046C0018B91CB010BDFFF7ACFFFFF7AAFF00BF17
:10047C000048025808B5FFF77BFF00F04BF8FFF778
:10048C00A3FFFFF757FF002001F07CFF012001F0D4
:10049C0079FF022001F076FF0121002001F0C4FF5A
:1004AC0007494FF4E1330B60002048600881488114
:1004BC00888102F027F800B9FEE7FFF782FF00BF42
:1004CC0030000020104B1B780BB90120704710B581
:1004DC0004464FF47A70B0FBF3F30C4A1068B0FB8F
:1004EC00F3F000F0BDF868B90F2C01D901200AE037
:1004FC00002221464FF0FF3000F09EF8044B1C60A8
:10050C00002000E0012010BD0000002010000020A1
:10051C000400002010B5032000F07CF800F060FD12
:10052C000F498B69C3F303230E4AD35C03F01F03FB
:10053C00D8408B6903F00F03D35C03F01F0320FA40
:10054C0003F3094A1360094B18600020FFF7BAFF48
:10055C0010B10124204610BD044600F013FAF9E74F
:10056C0000440258182A00080C000020100000203B
:10057C00034B1B78034A11680B441360704700BF90
:10058C000000002040000020014B1868704700BF9D
:10059C0040000020002807DB00F01F024009012367
:1005AC009340024A42F82030704700BF00E100E05F
:1005BC00002804DB0901C9B2044B1954704700F040
:1005CC000F000901C9B2024B1954704700E400E056
:1005DC0014ED00E000B500F00700C0F1070CBCF111
:1005EC00040F28BF4FF0040C031D062B0FD9C31E9C
:1005FC004FF0FF3E0EFA0CF021EA000199400EFA82
:10060C0003FE22EA0E0241EA02005DF804FB00231D
:10061C00EEE700000649CB6823F4E0631B041B0CD7
:10062C00000200F4E0600343024A1A43CA607047B8
:10063C0000ED00E00000FA0510B50446054BD86843
:10064C00C0F30220FFF7C6FF01462046FFF7B0FFBC
:10065C0010BD00BF00ED00E008B5FFF79BFF08BD23
:10066C000138B0F1807F0BD24FF0E0235861054A7E
:10067C00F02182F823100020986107221A6170473C
:10068C000120704700ED00E0BFF35F8F044B5A6A06
:10069C0022F480325A620022C3F89420704700BFC3
:1006AC0000ED00E040F00100054BC3F894005A6ADD
:1006BC0042F480325A62BFF34F8FBFF36F8F704793
:1006CC0000ED00E04378144AC2F89830D2F8A0301C
:1006DC0023F00103C2F8A0304368C2F89C30017BC0
:1006EC00C37A1B0643EA0173817A43EAC143417B17
:1006FC0043EA8143817B43EA4143C17B43EA0143A3
:10070C00417A43EA0123017A43EA410301780B431E
:10071C00C2F8A030704700BF00ED00E018B121B95D
:10072C00426008467047012070470120704710B1A5
:10073C0001600020704701207047000010B503686D
:10074C00C3F3014203F01F03012199401301044A32
:10075C009C580C4203D09950436803B1984710BD84
:10076C0088000058F0B583B000236BE085685E000C
:10077C000324B44025EA0405CC68B4402C438460BF
:10078C00456825EA0C054C68C4F300149C402C43C6
:10079C00446069E0DD08083550F8254003F0070C8B
:1007AC004FEA8C0C4FF00F0E0EFA0CFE24EA0E0ED4
:1007BC000C6904FA0CF444EA0E0440F825406BE092
:1007CC00092400E0002404FA0EF42C430CF1020C72
:1007DC00664D45F82C404FF0B0442568D44325EACB
:1007EC0002064F6817F4801F01D042EA05064FF04D
:1007FC00B0452E606D6804EA05064F6817F4001FBB
:10080C0001D042EA05064FF0B0456E60D5F8845031
:10081C0004EA05064F6817F4003F01D042EA0506CA
:10082C004FF0B045C5F88460D5F880502C404E6828
:10083C0016F4803F01D042EA05044FF0B042C2F8F2
:10084C00804001330A6832FA03F400F08C804FF0D8
:10085C00010C0CFA03FC1CEA0202F2D04C6804F006
:10086C000304013C012C81D94C6804F00304032CD3
:10087C000CD0C4685D004FF0030C0CFA05FC24EAA4
:10088C000C0C8C68AC4044EA0C04C4604C6804F05A
:10089C000304022C3FF47EAF04684FEA430E4FF082
:1008AC00030C0CFA0EFC24EA0C0C4C6804F0030448
:1008BC0004FA0EF444EA0C0404604C6814F4403F4F
:1008CC00BFD02B4CD4F8F45045F00205C4F8F450CA
:1008DC00D4F8F44004F002040194019C4FEA930C08
:1008EC000CF10205214C54F8255003F0030E4FEA8D
:1008FC008E0E0F2404FA0EF425EA04051D4CA042BA
:10090C003FF460AF04F58064A0421ED004F580640F
:10091C00A0421CD004F58064A0421AD004F5806477
:10092C00A04218D004F58064A04216D004F580646F
:10093C00A04214D004F58064A04212D004F50064E7
:10094C00A0423FF43DAF0A243DE701243BE70224DB
:10095C0039E7032437E7042435E7052433E7062475
:10096C0031E707242FE703B0F0BD00BF00040058A7
:10097C0000440258000002580AB181617047090412
:10098C008161704782B0074BD3F8F42042F0020229
:10099C00C3F8F420D3F8F43003F002030193019B65
:1009AC0002B0704700440258134BDB6813F0040F7D
:1009BC0007D1114BDB6803F0070383421AD00120E7
:1009CC00704710B50C4AD36823F007030343D36078
:1009DC00FFF7DAFD0446084B5B6813F4005F07D1A0
:1009EC00FFF7D2FD001BB0F57A7FF4D9012000E0AF
:1009FC00002010BD0020704700480258002800F06D
:100A0C00D58238B50446036813F0010F25D0A04AEF
:100A1C00136903F03803926A102B15D0182B0FD0E2
:100A2C006368B3F5803F3FD0002B53D1984B1A68C5
:100A3C0022F480321A601A6822F480221A6038E09C
:100A4C0002F00302022AEBD1914B1B6813F4003F16
:100A5C0003D06368002B00F0AB82236813F0020F05
:100A6C0000F088808A4A1369926A13F038035AD0CE
:100A7C00182B55D0E368002B00F0A98084490A6834
:100A8C0022F0190213430B60FFF77EFD0546804BE5
:100A9C001B6813F0040F40F09180FFF775FD401BAD
:100AAC000228F4D903208AE2794A136843F480338C
:100ABC00136063682BB3FFF767FD0546744B1B6827
:100ACC0013F4003FC9D1FFF75FFD401B6428F5D933
:100ADC00032074E2B3F5A02F09D06D4B1A6822F4F1
:100AEC0080321A601A6822F480221A60E1E7684B9F
:100AFC001A6842F480221A601A6842F480321A6032
:100B0C00D7E7FFF741FD0546614B1B6813F4003F27
:100B1C00A3D0FFF739FD401B6428F5D903204EE222
:100B2C0012F0030FA6D15A4B1B6813F0040F03D01D
:100B3C00E368002B00F03E82554A136823F019033A
:100B4C00E1680B431360FFF71FFD0546504B1B6814
:100B5C0013F0040F06D1FFF717FD401B0228F5D93F
:100B6C0003202CE24A4A536823F0FE43216943EAEE
:100B7C0001635360236813F0100F51D0444A13697A
:100B8C0003F03803926A082B39D0182B33D0E36961
:100B9C00002B69D03E4A136843F080031360FFF7C3
:100BAC00F3FC05463A4B1B6813F4807F53D1FFF7D7
:100BBC00EBFC401B0228F5D9032000E2344A5368B1
:100BCC0023F0FE43216943EA01635360D2E7304AC4
:100BDC00136823F001031360FFF7D6FC05462C4B7A
:100BEC001B6813F0040FC5D0FFF7CEFC401B022886
:100BFC00F5D90320E3E102F00302012AC7D1244B0B
:100C0C001B6813F4807F03D0E369802B40F0D48100
:100C1C001F4AD36823F07C53216A43EA0163D360F3
:100C2C00236813F0080F49D06369002B32D0184A9F
:100C3C00536F43F001035367FFF7A6FC0546144BB3
:100C4C005B6F13F0020F39D1FFF79EFC401B02289B
:100C5C00F5D90320B3E10E4AD36823F07C53216A03
:100C6C0043EA0163D360DBE7094A136823F080038E
:100C7C001360FFF789FC0546054B1B6813F4807F56
:100C8C00CED0FFF781FC401B0228F5D9032096E15A
:100C9C00004402589D4A536F23F001035367FFF73A
:100CAC0073FC0546994B5B6F13F0020F06D0FFF7F0
:100CBC006BFC401B0228F5D9032080E1236813F05C
:100CCC00200F29D0A3699BB1904A136843F4805339
:100CDC001360FFF759FC05468C4B1B6813F4005F3F
:100CEC001AD1FFF751FC401B0228F5D9032066E10D
:100CFC00864A136823F480531360FFF745FC0546BE
:100D0C00824B1B6813F4005F06D0FFF73DFC401BC1
:100D1C000228F5D9032052E1236813F0040F21D1E6
:100D2C00636A002B00F04A81784A126902F038029B
:100D3C00182A00F0F180022B75D0744A136823F046
:100D4C0080731360FFF720FC0446704B1B6813F094
:100D5C00007F00F0D880FFF717FC001B0228F4D9A5
:100D6C0003202CE16A4A136843F480731360FFF785
:100D7C000BFC0546664B1B6813F4807F06D1FFF70E
:100D8C0003FC401B6428F5D9032018E1A368012B50
:100D9C000AD00BBB5D4B1A6F22F001021A671A6F57
:100DAC0022F004021A6704E0584A136F43F001035F
:100DBC001367A36833B3FFF7E7FB0546534B1B6F71
:100DCC0013F0020FACD1FFF7DFFB401B41F288336D
:100DDC009842F3D90320F2E0052B09D04B4B1A6F44
:100DEC0022F001021A671A6F22F004021A67E0E778
:100DFC00464B1A6F42F004021A671A6F42F0010256
:100E0C001A67D6E7FFF7C0FB0546404B1B6F13F084
:100E1C00020F85D0FFF7B8FB401B41F28833984294
:100E2C00F3D90320CBE0394A136823F080731360A5
:100E3C00FFF7AAFB0546354B1B6813F0007F06D065
:100E4C00FFF7A2FB401B0228F5D90320B7E02F4B7C
:100E5C00996A304A0A40A16AE06A41EA00110A43E1
:100E6C009A62226B013AC2F30802616B01394902A2
:100E7C0089B20A43A16B0139090401F4FE010A434A
:100E8C00E16B0139090601F0FE410A431A63DA6A83
:100E9C0022F00102DA625A6B6FF3CF02A16C42EAC4
:100EAC00C1025A63DA6A22F00C02216C0A43DA623C
:100EBC00DA6A22F00202616C0A43DA62DA6A42F4FC
:100ECC008032DA62DA6A42F40032DA62DA6A42F4C6
:100EDC008022DA62DA6A42F00102DA621A6842F0BF
:100EEC0080721A60FFF750FB0446084B1B6813F026
:100EFC00007F06D1FFF748FB001B0228F5D9032021
:100F0C005DE000205BE0002059E000BF0044025887
:100F1C00004802580CFCFFFF30498A6A086B012B11
:100F2C004ED002F00303A16A8B424BD1C2F30512DF
:100F3C00E36A9A4248D1C0F30802236B013B9A4200
:100F4C0044D1C0F34622636B013B9A4240D1C0F3BB
:100F5C000642A36B013B9A423CD1C0F30660E36BA3
:100F6C00013B984238D11D4B5B6BC3F3CC03A26C95
:100F7C009A4201D1002022E0184AD36A23F00103DF
:100F8C00D362FFF701FB0546FFF7FEFAA842FBD040
:100F9C00124A536B6FF3CF03A16C43EAC103536343
:100FAC00D36A43F00103D362002008E001207047AC
:100FBC00012004E0012002E0012000E0002038BD07
:100FCC000120FCE70120FAE70120F8E70120F6E711
:100FDC000120F4E70120F2E70120F0E70044025879
:100FEC00754B1B6903F03803102B00F0DE80182BB7
:100FFC000FD0002B40F0DB806F4B1B6813F0200FE1
:10100C0000F0D7806C4B1B68C3F3C1036B48D8400E
:10101C00704710B4684B9A6A02F003029C6AC4F3DE
:10102C000510D96A01F001015B6BC3F3CC0301FB22
:10103C0003F307EE903AF8EE677A14F47C7F77D0DE
:10104C00012A4AD0022A76D0002A40F091805A4BCD
:10105C001B6813F0200F23D057490A68C2F3C10252
:10106C00564BD34007EE103AF8EE476A07EE100ADB
:10107C00B8EE476A86EE867A0B6BC3F3080306EE6E
:10108C00903AF8EE666A9FED4E6A67EE867A76EED7
:10109C00A77AF7EE006A77EEA67A27EE277A38E081
:1010AC0007EE100AF8EE476A9FED466A86EE267A3E
:1010BC00414B1B6BC3F3080306EE903AF8EE666ADD
:1010CC009FED3F6A67EE867A76EEA77AF7EE006AB6
:1010DC0077EEA67A27EE277A1BE007EE100AF8EED9
:1010EC00476A9FED396A86EE267A334B1B6BC3F346
:1010FC00080306EE903AF8EE666A9FED316A67EEE9
:10110C00867A76EEA77AF7EE006A77EEA67A27EE65
:10111C00277A294B1B6BC3F34623013307EE903A16
:10112C00F8EE677AC7EE276AFCEEE67A17EE900ABD
:10113C005DF8044B704707EE100AF8EE476A9FED16
:10114C00236A86EE267A1C4B1B6BC3F3080306EE50
:10115C00903AF8EE666A9FED1A6A67EE867A76EE3A
:10116C00A77AF7EE006A77EEA67A27EE277AD0E711
:10117C0007EE100AF8EE476A9FED136A86EE267AA0
:10118C000D4B1B6BC3F3080306EE903AF8EE666A40
:10119C009FED0B6A67EE867A76EEA77AF7EE006A19
:1011AC0077EEA67A27EE277AB3E709487047094805
:1011BC0070470248704700BF004402580090D003AB
:1011CC00000000390024744C0024744A0024F44AB2
:1011DC0000127A0000093D00002800F0328170B541
:1011EC000D4604469B4B1B6803F00F038B420BD23E
:1011FC00984A136823F00F030B431360136803F032
:10120C000F038B4240F01F81236813F0040F0CD0A6
:10121C002269914B9B6903F070039A4205D98E4960
:10122C008B6923F070031A438A61236813F0080F4B
:10123C000CD06269884BDB6903F070039A4205D9C4
:10124C008549CB6923F070031A43CA61236813F0F4
:10125C00100F0CD0A269804BDB6903F4E0639A4257
:10126C0005D97D49CB6923F4E0631A43CA6123682D
:10127C0013F0200F0CD0E269774B1B6A03F070035C
:10128C009A4205D974490B6A23F070031A430A6217
:10129C00236813F0020F0CD0E2686F4B9B6903F0CC
:1012AC000F039A4205D96C498B6923F00F031A433B
:1012BC008A61236813F0010F41D0674A936923F4C4
:1012CC007063A1680B4393616368022B0AD0032BF4
:1012DC0027D0012B2CD0604A126812F0040F06D1D3
:1012EC000120ADE0126812F4003F00F0AE805A49C4
:1012FC000A6922F0070213430B61FFF745F9064612
:10130C00554B1B6903F038036268B3EBC20F16D060
:10131C00FFF73AF9801B41F288339842F0D9032049
:10132C008EE04D4A126812F0007FE0D1012087E078
:10133C00494A126812F4807FD9D1012080E02368D9
:10134C0013F0020F0CD0E268434B9B6903F00F03C0
:10135C009A4205D240498B6923F00F031A438A61E4
:10136C003C4B1B6803F00F03AB420AD9394A136894
:10137C0023F00F032B431360136803F00F03AB42EE
:10138C0065D1236813F0040F0CD02269324B9B6992
:10139C0003F070039A4205D22F498B6923F0700336
:1013AC001A438A61236813F0080F0CD062692A4B28
:1013BC00DB6903F070039A4205D22749CB6923F00D
:1013CC0070031A43CA61236813F0100F0CD0A26982
:1013DC00214BDB6903F4E0639A4205D21E49CB69C9
:1013EC0023F4E0631A43CA61236813F0200F0CD076
:1013FC00E269194B1B6A03F070039A4205D2164935
:10140C000B6A23F070031A430A62FFF7E9FD1249D5
:10141C008B69C3F30323114AD35C03F01F03D84039
:10142C008B6903F00F03D35C03F01F0320FA03F363
:10143C000B4A13600B4B18600B4B1868FFF742F804
:10144C0070BD012070470120FAE70120F8E7012068
:10145C00F6E700BF0020005200440258182A00088A
:10146C000C000020100000200400002008B5FFF73D
:10147C00B7FD0B4A9369C3F303230A49CB5C03F012
:10148C001F0320FA03F3926902F00F02885C00F04C
:10149C001F0023FA00F0044A1060044A136008BDD0
:1014AC0000440258182A00080C00002010000020EC
:1014BC0008B5FFF7DBFF054BDB69C3F30213044AE6
:1014CC00D35C03F01F03D84008BD00BF0044025892
:1014DC00182A000808B5FFF7C9FF054BDB69C3F3F1
:1014EC000223044AD35C03F01F03D84008BD00BF9D
:1014FC0000440258182A000808B5FFF7B7FF054B3F
:10150C001B6AC3F30213044AD35C03F01F03D840D5
:10151C0008BD00BF00440258182A000810B4794BCB
:10152C009A6A9C6AC4F3053CD96AC1F30011DB6B5F
:10153C00C3F3CC0301FB03F314F47C3F00F0DD8018
:10154C0002F0030207EE903AF8EE677A012A4BD0CC
:10155C00022A00F09880002A40F0B280694B1B6888
:10156C0013F0200F23D067490A68C2F3C102664BFF
:10157C00D34007EE103AF8EE476A07EE10CAB8EE01
:10158C00476A86EE867A8B6BC3F3080306EE903AB5
:10159C00F8EE666A9FED5D6A67EE867A76EEA77A5C
:1015AC00F7EE006A77EEA67A27EE277A38E007EE98
:1015BC0010CAF8EE476A9FED566A86EE267A514BB2
:1015CC009B6BC3F3080306EE903AF8EE666A9FED48
:1015DC004F6A67EE867A76EEA77AF7EE006A77EEB8
:1015EC00A67A27EE277A1BE007EE10CAF8EE476AB8
:1015FC009FED486A86EE267A424B9B6BC3F3080339
:10160C0006EE903AF8EE666A9FED406A67EE867ACF
:10161C0076EEA77AF7EE006A77EEA67A27EE277AAF
:10162C00384A936BC3F3462307EE903AF8EE677A89
:10163C00F7EE006A77EEA67A87EE276ABCEEC66AEA
:10164C0080ED006A936BC3F3064307EE903AF8EE15
:10165C00677A77EEA67A87EE276ABCEEC66A80EDCB
:10166C00016A936BC3F3066307EE903AF8EE677A60
:10167C0077EEA67AC7EE276AFCEEE66AC0ED026A40
:10168C005DF8044B704707EE10CAF8EE476A9FED01
:10169C00226A86EE267A1B4B9B6BC3F3080306EE7D
:1016AC00903AF8EE666A9FED196A67EE867A76EEE6
:1016BC00A77AF7EE006A77EEA67A27EE277AAFE7DD
:1016CC0007EE10CAF8EE476A9FED126A86EE267A8C
:1016DC000C4B9B6BC3F3080306EE903AF8EE666A6C
:1016EC009FED0A6A67EE867A76EEA77AF7EE006AC5
:1016FC0077EEA67A27EE277A92E700230360436001
:10170C008360BDE7004402580090D003000000390C
:10171C000024744C0024744A0024F44A10B4794B0D
:10172C009A6A9C6AC4F3055CD96AC1F300215B6CAC
:10173C00C3F3CC0301FB03F314F07C7F00F0DD80DA
:10174C0002F0030207EE903AF8EE677A012A4BD0CA
:10175C00022A00F09880002A40F0B280694B1B6886
:10176C0013F0200F23D067490A68C2F3C102664BFD
:10177C00D34007EE103AF8EE476A07EE10CAB8EEFF
:10178C00476A86EE867A0B6CC3F3080306EE903A32
:10179C00F8EE666A9FED5D6A67EE867A76EEA77A5A
:1017AC00F7EE006A77EEA67A27EE277A38E007EE96
:1017BC0010CAF8EE476A9FED566A86EE267A514BB0
:1017CC001B6CC3F3080306EE903AF8EE666A9FEDC5
:1017DC004F6A67EE867A76EEA77AF7EE006A77EEB6
:1017EC00A67A27EE277A1BE007EE10CAF8EE476AB6
:1017FC009FED486A86EE267A424B1B6CC3F30803B6
:10180C0006EE903AF8EE666A9FED406A67EE867ACD
:10181C0076EEA77AF7EE006A77EEA67A27EE277AAD
:10182C00384A136CC3F3462307EE903AF8EE677A06
:10183C00F7EE006A77EEA67A87EE276ABCEEC66AE8
:10184C0080ED006A136CC3F3064307EE903AF8EE92
:10185C00677A77EEA67A87EE276ABCEEC66A80EDC9
:10186C00016A136CC3F3066307EE903AF8EE677ADD
:10187C0077EEA67AC7EE276AFCEEE66AC0ED026A3E
:10188C005DF8044B704707EE10CAF8EE476A9FEDFF
:10189C00226A86EE267A1B4B1B6CC3F3080306EEFA
:1018AC00903AF8EE666A9FED196A67EE867A76EEE4
:1018BC00A77AF7EE006A77EEA67A27EE277AAFE7DB
:1018CC0007EE10CAF8EE476A9FED126A86EE267A8A
:1018DC000C4B1B6CC3F3080306EE903AF8EE666AE9
:1018EC009FED0A6A67EE867A76EEA77AF7EE006AC3
:1018FC0077EEA67A27EE277A92E7002303604360FF
:10190C008360BDE7004402580090D003000000390A
:10191C000024744C0024744A0024F44A026852E8EF
:10192C00003F23F4907342E800310029F6D102689D
:10193C0002F1080353E8001F0D4B0B40083242E83C
:10194C0000310029F3D1C36E012B06D02023C0F83F
:10195C008C300023C36643677047026852E8003F2F
:10196C0023F0100342E800310029F6D1EEE700BF66
:10197C00FEFFFFEF7047000070B586B00446836829
:10198C000269134342691343C2691343016808682F
:10199C00904A02401A430A602268536823F4405369
:1019AC00E1680B435360A16922688B4B9A4201D0CA
:1019BC00236A19439068894B03400B439360226858
:1019CC00D36A23F00F03616A0B43D3622368844A02
:1019DC00934229D0834A934200F09480824A9342E6
:1019EC0000F0AA80814A934200F0C080804A934262
:1019FC0000F0D6807F4A934200F008817E4A9342E1
:101A0C0000F02D817D4A934200F040817C4A934244
:101A1C0000F053817B4A934200F078816E4A9342E6
:101A2C0000F09D8180223BE0774A526D02F0380233
:101A3C00282A34D8DFE812F02900330033003300B1
:101A4C003300330033003300AB0133003300330079
:101A5C0033003300330033002B00330033003300EA
:101A6C0033003300330033002D00330033003300D8
:101A7C0033003300330033002F00330033003300C6
:101A8C0033003300330033003100012208E0082218
:101A9C0006E0102204E0202202E0402200E0802236
:101AAC004D498B4200F08C81E069B0F5004F00F09D
:101ABC000282202A00F25A82202A00F2A482DFE855
:101ACC0012F071027702A202A2027A02A202A20210
:101ADC00A2027F02A202A202A202A202A202A202FD
:101AEC00A2028402A202A202A202A202A202A202E8
:101AFC00A202A202A202A202A202A202A202A202BA
:101B0C00A2029002404A526D02F00702052A11D837
:101B1C00DFE812F006003F0108000A000C000E007E
:101B2C000022BDE70822BBE71022B9E72022B7E765
:101B3C004022B5E78022B3E7334A526D02F0070228
:101B4C00052A11D8DFE812F00600270108000A0068
:101B5C000C000E000022A3E70822A1E710229FE749
:101B6C0020229DE740229BE7802299E7264A526D6E
:101B7C0002F00702052A11D8DFE812F006000F0167
:101B8C0008000A000C000E00002289E7082287E7F3
:101B9C00102285E7202283E7402281E780227FE71D
:101BAC00194A526D02F00702052A11D8DFE812F02B
:101BBC000600F70008000A000C000E0000226FE778
:101BCC0008226DE710226BE7202269E7402267E7C5
:101BDC00802265E7F369FFCF000C0058FFF4FF117A
:101BEC00001001400044004000480040004C004000
:101BFC00005000400014014000780040007C004080
:101C0C0000180140001C014000440258694A526D02
:101C1C0002F03802282A20D8DFE802F0151F1F1F17
:101C2C001F1F1F1FC31F1F1F1F1F1F1F171F1F1F1C
:101C3C001F1F1F1F191F1F1F1F1F1F1F1B1F1F1FB2
:101C4C001F1F1F1F1D0001222AE7082228E7102250
:101C5C0026E7202224E7402222E7802220E7554A6B
:101C6C00526D02F00702052A0ED8DFE802F0039C41
:101C7C000507090B002213E7082211E710220FE7D2
:101C8C0020220DE740220BE7802209E7494A526DDA
:101C9C0002F00702052A0ED8DFE802F003870507D9
:101CAC00090B0022FCE60822FAE61022F8E62022B4
:101CBC00F6E64022F4E68022F2E63E4A526D02F04D
:101CCC003802282A20D8DFE802F0151F1F1F1F1F1B
:101CDC001F1F721F1F1F1F1F1F1F171F1F1F1F1FBD
:101CEC001F1F191F1F1F1F1F1F1F1B1F1F1F1F1F02
:101CFC001F1F1D000122D3E60822D1E61022CFE6D9
:101D0C002022CDE64022CBE68022C9E6294A526D3C
:101D1C0002F03802282A20D8DFE802F0151F1F1F16
:101D2C001F1F1F1F4E1F1F1F1F1F1F1F171F1F1F90
:101D3C001F1F1F1F191F1F1F1F1F1F1F1B1F1F1FB1
:101D4C001F1F1F1F1D000122AAE60822A8E6102251
:101D5C00A6E62022A4E64022A2E68022A0E602F516
:101D6C000E32926D02F00702052A0ED8DFE802F05F
:101D7C0003260507090B022292E6082290E61022A0
:101D8C008EE620228CE640228AE6802288E6042217
:101D9C0086E6042284E6042282E6042280E60422FB
:101DAC007EE604227CE604227AE6042278E604220B
:101DBC0076E600BF00440258042271E604226FE666
:101DCC00202A27D8022AC0F01081023A1E2A00F2DB
:101DDC000E81DFE812F050000C0156000C010C01D2
:101DEC000C015B000C010C010C010C010C010C0131
:101DFC000C0160000C010C010C010C010C010C011C
:101E0C000C010C010C010C010C010C010C010C015E
:101E1C000C016C00402A2CD14FF40040626A804BBC
:101E2C0033F81220B0FBF2F3656805EB45019942DB
:101E3C0000F2DF80B3EB053F00F2DD800026334675
:101E4C003146FEF73DFA090241EA106100026B08C7
:101E5C00C0182A46334641F10001FEF731FAA0F5CD
:101E6C004072704B9A4200F2C8802368D8603046AA
:101E7C00CAE00120C8E0FFF73FFB0028CED10020CC
:101E8C00C2E003A8FFF74AFB0498F6E76846FFF7A1
:101E9C0045FC0198F1E7644B1B6813F0200F08D048
:101EAC00614B1B68C3F3C1036048D840B6E7604878
:101EBC00B4E75E48B2E7202A15D8202A00F29F80AA
:101ECC00DFE802F031379D9D3A9D9D9D3F9D9D9D84
:101EDC009D9D9D9D449D9D9D9D9D9D9D9D9D9D9D7F
:101EEC009D9D9D9D5000402A1BD1626A4C4B33F83E
:101EFC001230B0FBF3F06268530803EB4003B3FB02
:101F0C00F2F3A3F110014FF6EF72914279D89AB225
:101F1C0022F00F02C3F3420313432268D360002064
:101F2C0072E0012070E0FFF7C3FA0028DDD1002039
:101F3C006AE0FFF7CFFAF8E703A8FFF7EFFA049887
:101F4C00F3E76846FFF7EAFB0198EEE7364B1B68B0
:101F5C0013F0200F08D0344B1B68C3F3C103334874
:101F6C00D840C2E73248C0E73048BEE7402A17D114
:101F7C004FF40040626A2A4B33F81230B0FBF3F096
:101F8C00636800EB5300B0FBF3F0A0F110024FF6C6
:101F9C00EF739A4242D8236880B2D860002033E0B5
:101FAC00012031E0FFF784FA0028E3D100202BE078
:101FBC00FFF790FAF8E703A8FFF7B0FA0498F3E7F5
:101FCC006846FFF7ABFB0198EEE7174B1B6813F065
:101FDC00200F08D0144B1B68C3F3C1031348D8401F
:101FEC00C8E71348C6E71148C4E701200CE00120FC
:101FFC000AE0012008E0012006E0012004E00120B5
:10200C0002E0012000E001200123A4F86A30A4F8CA
:10201C00683000236367A36706B070BD0120F3E747
:10202C00EC290008FFFC0F00004402580090D0037C
:10203C0000093D00836A13F0080F06D0026853684C
:10204C0023F40043816B0B435360836A13F0010F3D
:10205C0006D00268536823F40033C16A0B43536003
:10206C00836A13F0020F06D00268536823F480339E
:10207C00016B0B435360836A13F0040F06D00268A4
:10208C00536823F48023416B0B435360836A13F032
:10209C00100F06D00268936823F48053C16B0B4376
:1020AC009360836A13F0200F06D00268936823F4C0
:1020BC000053016C0B439360836A13F0400F0AD0FA
:1020CC000268536823F48013416C0B435360436CD8
:1020DC00B3F5801F0BD0836A13F0800F06D0026813
:1020EC00536823F40023C16C0B43536070470268A0
:1020FC00536823F4C003816C0B435360EBE72DE969
:10210C00F84305460E4617469946DDF820802B68A5
:10211C00DC6936EA04040CBF01240024BC423AD129
:10212C00B8F1FF3FF3D0FEF72FFAA0EB09004045C2
:10213C0034D8B8F1000F33D02B681A6812F0040FA2
:10214C00E5D0B6F1400218BF0122802EDFD0002A64
:10215C00DDD0DA6912F0080F11D1DA6912F4006FD0
:10216C00D5D04FF400621A622846FFF7D7FB202324
:10217C00C5F89030002385F8843003200CE0082447
:10218C001C622846FFF7CAFBC5F89040002385F86F
:10219C008430012000E00020BDE8F8830320FBE739
:1021AC000320F9E730B583B004460023C0F8903023
:1021BC00FEF7EAF905462268126812F0080F10D1F2
:1021CC0023681B6813F0040F28D12023C4F888302F
:1021DC00C4F88C300020E066206784F8840003B0DB
:1021EC0030BD6FF07E430093034600224FF4001184
:1021FC002046FFF784FF0028E2D0226852E8003F17
:10220C0023F0800342E800310029F6D12023C4F8E2
:10221C008830002384F884300320E0E76FF07E439D
:10222C0000932B4600224FF480012046FFF767FFF6
:10223C000028CAD0226852E8003F23F4907342E889
:10224C0000310029F6D1226802F1080353E8003F5F
:10225C0023F00103083242E800310029F3D1202396
:10226C00C4F88C30002384F884300320B7E778B3AB
:10227C0010B50446D0F888300BB32423C4F888304A
:10228C002268136823F001031360A36AE3B92046A4
:10229C00FFF772FB012811D02268536823F4904396
:1022AC0053602268936823F02A03936022681368B2
:1022BC0043F0010313602046FFF774FF10BD80F854
:1022CC008430FFF757FBD8E72046FFF7B3FEDEE775
:1022DC0001207047FEE7FEE7FEE7FEE7FEE77047EA
:1022EC007047704708B5FEF743F908BD08B50020E4
:1022FC0000F0E0F808BD0000F0B589B01F4BD3F832
:10230C00E02042F00802C3F8E020D3F8E02002F00D
:10231C0008020092009AD3F8E02042F00802C3F8B9
:10232C00E020D3F8E02002F008020192019AD3F8E1
:10233C00E82042F48022C3F8E820D3F8E83003F414
:10234C0080230293029B4FF4807303930224049422
:10235C000694012305930727079703AE084D3146D2
:10236C002846FEF7FFF94FF4007303930494079784
:10237C0031462846FEF7F6F909B0F0BD0044025884
:10238C00000C0258022846D870B588B028BB234BE5
:10239C00D3F8E02042F00202C3F8E020D3F8E0309A
:1023AC0003F002030093009B1D4B33F8106003965F
:1023BC00012304930024059403230693194B53F82B
:1023CC00205003A92846FEF7CDF92246314628466F
:1023DC00FEF7D2FA204608B070BD01280DD00F4B85
:1023EC00D3F8E02042F00202C3F8E020D3F8E0304A
:1023FC0003F002030293029BD6E7084BD3F8E020CC
:10240C0042F01002C3F8E020D3F8E03003F01003E0
:10241C000193019BC8E76FF001007047004402581C
:10242C00042A00080C2A000810B586B01C4BD3F8FF
:10243C00E02042F00402C3F8E020D3F8E03003F0CF
:10244C0004030093009B4FF4005301930223039366
:10245C00049341B90023029301A91248FEF782F9B3
:10246C00002006B010BD04464FF48813029301A956
:10247C000C48FEF777F90C4B03EBC4040B492046D0
:10248C00FEF755F90A4A00212046FEF747F90022CB
:10249C000F212820FEF7D0F82820FEF7DDF8DFE723
:1024AC000044025800080258D80000200D003016D5
:1024BC00D724000808B5034B03EBC000FEF73EF928
:1024CC0008BD00BFD8000020704708B50020FFF7FA
:1024DC00FBFF08BD08B50A4A126802600A68426030
:1024EC000C2242614A8902614A6882600A89C26090
:1024FC008A8982614FF40042C261FFF7B8FE08BDC1
:10250C000800002070B938B50D469422084C02FB27
:10251C0000442046FFF7F0FE29462046FFF7DAFF7D
:10252C0018B938BD6FF0010070476FF00300F8E781
:10253C00440000202B4AD2F8883043F47003C2F8D0
:10254C008830294B1B6803F00F03062B06D8264A4C
:10255C00136823F00F0343F007031360234B1A682F
:10256C0042F001021A6000221A611968204A0A40DE
:10257C001A601D4B1B6813F0080F06D01A4A13681B
:10258C0023F00F0343F007031360184B00229A61EA
:10259C00DA611A62174999621749D96217491963A6
:1025AC005A639963DA6319645A64196821F48021B7
:1025BC0019601A66D3F8D43013F4805F10D10B4B2A
:1025CC00D3F8D42042F48052C3F8D4200C4A43F2FE
:1025DC00D2011160D3F8D42022F48052C3F8D42055
:1025EC00704700BF00ED00E000200052004402588C
:1025FC007FEDF6EA000202020000FF0180020101F9
:10260C0000400052054AD36843F00203D360034BE9
:10261C005B6813F4005FFAD0704700BF00480258A3
:10262C00DFF838D0FFF7EEFFFFF784FF0C480D49B9
:10263C000D4A002302E0D458C4500433C4188C4211
:10264C00F9D30A4A0A4C002301E013600432A24277
:10265C00FBD300F019F8FDF70DFF704700000220C6
:10266C000000002014000020382A0008140000206C
:10267C00E0000020FEE702440346934200D170477D
:10268C0003F8011BF9E7000070B50D4B0D4D5B1BFA
:10269C009C100026A64209D100F096F90A4D0B4B6E
:1026AC005B1B9C100026A64205D170BD55F8043B5F
:1026BC0098470136EEE755F8043B98470136F2E7A8
:1026CC00302A0008302A0008302A0008342A000872
:1026DC002DE9F047089D0F4604468C46002B48D147
:1026EC008A42164661D9B2FA82F34BB1C3F1200289
:1026FC0001FA03FC20FA02F29E4042EA0C0C9C40C8
:10270C004FEA164EB7B2BCFBFEF1220C0EFB11CCFD
:10271C0042EA0C4201FB07F0904209D9B21801F1D0
:10272C00FF3C80F0EE80904240F2EB800239324464
:10273C00121AA4B2B2FBFEF00EFB102244EA0244C1
:10274C0000FB07F7A74209D9341900F1FF3280F0DA
:10275C00DA80A74240F2D7803444023840EA014084
:10276C00E41B00211DB1DC400023C5E90043BDE89A
:10277C00F0878B4206D90DB1C5E90001002108464E
:10278C00BDE8F087B3FA83F1002948D1BB4202D3EC
:10279C00824200F20781841A67EB030201209446FF
:1027AC00002DE4D0C5E9004CE1E7002A00F092804E
:1027BC00B2FA82F3002B40F0A8808A1A4FEA164E28
:1027CC001FFA86FC0121200CB2FBFEF70EFB172230
:1027DC0040EA02420CFB07F0904207D9B21807F10D
:1027EC00FF3802D2904200F2E2804746121AA4B29D
:1027FC00B2FBFEF00EFB102244EA02440CFB00FC80
:10280C00A44507D9341900F1FF3202D2A44500F2D5
:10281C00CB801046A4EB0C0440EA0740A2E7C1F1C0
:10282C0020068B4022FA06FC4CEA030C07FA01F452
:10283C0020FA06F3F7404FEA1C49234300FA01F84B
:10284C001FFA8CFEB7FBF9F01C0C09FB107744EA5D
:10285C00074400FB0EF7A74202FA01F20AD91CEB5F
:10286C00040400F1FF3A80F09B80A74240F298806C
:10287C0002386444E41B9FB2B4FBF9F309FB134424
:10288C0047EA044403FB0EFEA64509D91CEB0404DD
:10289C0003F1FF3780F08280A6457FD9023B644468
:1028AC0043EA0040A4EB0E04A0FB02E7BC427346D3
:1028BC00B94663D360D05DB1B8EB030264EB090495
:1028CC0004FA06F622FA01F31E43CC40C5E9006473
:1028DC0000214CE76208480842EAC1710B0C43EA3C
:1028EC0000438AB242EA0342B3FBF6F1E407B44672
:1028FC003746B6461F23B0FBF6F0D21B41EA004127
:10290C0061E7614614E7104628E7C3F1200120FA7D
:10291C0001F29E4027FA01F19F403A434FEA164ECE
:10292C001FFA86FCB1FBFEF70EFB1710110C41EAE7
:10293C00004107FB0CF8884504FA03F43AD97118E6
:10294C0007F1FF3001D288451FD8A1EB0801B1FB7C
:10295C00FEF808FB0CF70EFB181192B242EA01428A
:10296C00BA422FD2B21808F1FF31C6D2BA42C4D241
:10297C00A8F102013244C0E7F0459CD2BEEB020341
:10298C0067EB0C070138B94695E7A6EB08084144FC
:10299C00B81EB1FBFEF808FB0CF7DCE73B467FE703
:1029AC00504667E70846FBE63444023832E7023FFC
:1029BC0032441BE7A1EB08013846B1FBFEF808FBDB
:1029CC000CF7C8E7414698E7F8B500BFF8BC08BC5F
:1029DC009E467047F8B500BFF8BC08BC9E467047D1
:1029EC00010002000400060008000A000C001000A0
:1029FC0020004000800000010100020000400000A7
:102A0C000004025800100258000402580000000094
:0C2A1C000102030401020304060708097C
:082A2800B4FCFF7F0100000077
:042A30002503000872
:042A34000103000892
:102A38000100000010000000004800400090D00392
:042A48000090D00327
:040000050800262D9C
:00000001FF
